S01700004763634170706C69636174696F6E332E7372656359
S11300000C942A000C945E010C943C000C943C006B
S11300100C943C000C9447010C943C000C943C0060
S11300200C943C000C943C000C943C000C94EB00AD
S11300300C943C000C943C000C943C000C943C004C
S11300400C943C000C943C000C943C000C943C003C
S11300500C943C0011241FBECFE5D8E0DEBFCDBF19
S113006020E0A0E6B0E001C01D92A936B207E1F796
S11300700E94C4010C94C5030C94000041E060E0AC
S113008080E00E94C90141E060E081E00E94C90172
S113009041E060E082E00E94C90141E061E080E06B
S11300A00E94C90141E061E081E00E94C90141E090
S11300B061E082E00E94C90163E082E00E94B50130
S11300C08FB780688FBF85B7816085BF85B78D7F07
S11300D085BF8BB780648BBF89B7816089BF89B7BF
S11300E0806489BF80E00E94150380E00E946C0355
S11300F067EF82E00E942A030895809163008430B0
S113010018F010926300F9CF813011F130F0823091
S113011099F1833009F44BC0F0CF60E080E00E9495
S1130120B90160E081E00E94BD0160E082E00E94CC
S1130130BD0161E080E00E94BD0161E081E00E94B8
S1130140BD0161E082E00E94B90110926200D5CF46
S113015081E08093620060E080E00E94BD0160E085
S113016082E00E94BD0161E080E00E94BD0161E087
S113017082E00E94BD01C1CF60E080E00E94BD0129
S113018060E081E00E94BD0160E082E00E94B9016C
S113019061E080E00E94B90161E081E00E94BD015C
S11301A061E082E00E94BD0110926200A6CF81E06E
S11301B08093620060E080E00E94BD0160E082E024
S11301C00E94BD0161E080E00E94BD0161E082E027
S11301D00E94BD0192CF1F920F920FB60F9211246D
S11301E02F933F934F935F936F937F938F939F933B
S11301F0AF93BF93EF93FF9380916000813041F4FC
S113020010926000109268001092670010926600CD
S113021080916600909167008E33910530F40196C9
S1130220909367008093660021C0CE97F8F0809188
S113023068008F5F8093680080916200813039F498
S113024060E00E94C10161E081E00E94C1018091EF
S11302506800853039F4809163008F5F8093630078
S1130260109268001092670010926600FF91EF915F
S1130270BF91AF919F918F917F916F915F914F91BA
S11302803F912F910F900FBE0F901F9018951F92C2
S11302900F920FB60F9211248F939F938091640055
S11302A090916500019690936500809364009F91FE
S11302B08F910F900FBE0F901F9018951F920F9261
S11302C00FB60F9211242F933F934F935F936F9325
S11302D07F938F939F93AF93BF93EF93FF938091FB
S11302E061008F5F80936100813019F0823031F0BA
S11302F02BC06FE282E00E94810326C080916400DB
S1130300909165004F97C0F48091630081110AC0F9
S11303108F5F8093630010926800109267001092C0
S113032066000AC0813019F48093600005C08330F0
S113033019F481E0809360000E94C3031092650069
S11303401092640010926100FF91EF91BF91AF9100
S11303509F918F917F916F915F914F913F912F91D9
S11303600F900FBE0F901F90189540E00E94C90196
S1130370089541E00E944F02089540E00E944F0218
S113038008950E94D50208950E943E000E947D00B7
S1130390FDCF643008F082C0883008F07FC041305F
S11303A0E1F5613099F028F06230E9F0633041F111
S11303B008954AB321E030E0B90102C0660F771F07
S11303C08A95E2F7CB01842B8ABB089547B321E0D9
S11303D030E0B90102C0660F771F8A95E2F7CB01BE
S11303E0842B87BB089544B321E030E0B90102C0F7
S11303F0660F771F8A95E2F7CB01842B84BB08959F
S113040041B321E030E0B90102C0660F771F8A953D
S1130410E2F7CB01842B81BB089541113FC06130C9
S1130420A1F028F06230F9F0633059F108954AB32D
S113043021E030E0B90102C0660F771F8A95E2F728
S1130440CB01809584238ABB089547B321E030E033
S1130450B90102C0660F771F8A95E2F7CB01809538
S1130460842387BB089544B321E030E0B90102C07E
S1130470660F771F8A95E2F7CB018095842384BBAE
S1130480089541B321E030E0B90102C0660F771F3F
S11304908A95E2F7CB018095842381BB089564306B
S11304A008F082C0883008F07FC04130E1F5613047
S11304B099F028F06230E9F0633041F108954BB3CC
S11304C021E030E0B90102C0660F771F8A95E2F798
S11304D0CB01842B8BBB089548B321E030E0B901F4
S11304E002C0660F771F8A95E2F7CB01842B88BB85
S11304F0089545B321E030E0B90102C0660F771FCB
S11305008A95E2F7CB01842B85BB089542B321E0A1
S113051030E0B90102C0660F771F8A95E2F7CB017C
S1130520842B82BB089541113FC06130A1F028F0B3
S11305306230F9F0633059F108954BB321E030E0B3
S1130540B90102C0660F771F8A95E2F7CB01809547
S113055084238BBB089548B321E030E0B90102C085
S1130560660F771F8A95E2F7CB018095842388BBB9
S1130570089545B321E030E0B90102C0660F771F4A
S11305808A95E2F7CB018095842385BB089542B315
S113059021E030E0B90102C0660F771F8A95E2F7C7
S11305A0CB018095842382BB08956430E8F58830BC
S11305B0D8F5613099F028F06230E9F0633041F108
S11305C008954BB321E030E0B90102C0660F771FF4
S11305D08A95E2F7CB0184278BBB089548B321E0C9
S11305E030E0B90102C0660F771F8A95E2F7CB01AC
S11305F0842788BB089545B321E030E0B90102C0E7
S1130600660F771F8A95E2F7CB01842785BB08958F
S113061042B321E030E0B90102C0660F771F8A952A
S1130620E2F7CB01842782BB0895843090F48130B3
S113063041F028F0823041F0833049F0089513BE30
S1130640089580E483BF089588E083BF089588E413
S113065083BF089562BF8530F0F58230F9F028F445
S1130660882341F0813081F00895833009F184308A
S113067049F1089583B7816083BF83B78D7F83BFBA
S113068083B78B7F83BF089583B78E7F83BF83B780
S1130690826083BF83B78B7F83BF089583B78160F4
S11306A083BF83B7826083BF83B78B7F83BF089583
S11306B083B78E7F83BF83B78D7F83BF83B7846007
S11306C083BF089583B7816083BF83B78D7F83BF62
S11306D083B7846083BF0895843090F4813041F0FF
S11306E028F0823041F0833049F0089515BC089514
S11306F080E485BD089588E085BD089588E485BDBE
S1130700089564BD8530F0F58230F9F028F488232B
S113071041F0813081F00895833009F1843049F14A
S1130720089585B5816085BD85B58D7F85BD85B509
S11307308B7F85BD089585B58E7F85BD85B5826027
S113074085BD85B58B7F85BD089585B5816085BDE3
S113075085B5826085BD85B58B7F85BD089585B5DA
S11307608E7F85BD85B58D7F85BD85B5846085BD4E
S1130770089585B5816085BD85B58D7F85BD85B5B9
S1110780846085BD089515BC0895F894FFCFDC
S9030000FC
